{
    "_format": "hh-sol-artifact-1",
    "contractName": "DAOasisModule",
    "sourceName": "contracts/DAOasisModule.sol",
    "abi": [
        {
            "inputs": [
                {
                    "internalType": "address",
                    "name": "_owner",
                    "type": "address"
                },
                {
                    "internalType": "address",
                    "name": "_avatar",
                    "type": "address"
                },
                {
                    "internalType": "address",
                    "name": "_target",
                    "type": "address"
                },
                {
                    "internalType": "address",
                    "name": "_originSenders",
                    "type": "address"
                },
                {
                    "internalType": "uint32",
                    "name": "_origins",
                    "type": "uint32"
                },
                {
                    "internalType": "address",
                    "name": "_connexts",
                    "type": "address"
                }
            ],
            "stateMutability": "nonpayable",
            "type": "constructor"
        },
        {
            "inputs": [],
            "name": "ConnextOnly",
            "type": "error"
        },
        {
            "inputs": [],
            "name": "ModuleTransactionFailed",
            "type": "error"
        },
        {
            "inputs": [
                {
                    "internalType": "address",
                    "name": "guard_",
                    "type": "address"
                }
            ],
            "name": "NotIERC165Compliant",
            "type": "error"
        },
        {
            "inputs": [],
            "name": "OriginsOnly",
            "type": "error"
        },
        {
            "inputs": [],
            "name": "OriginsSenderOnly",
            "type": "error"
        },
        {
            "anonymous": false,
            "inputs": [
                {
                    "indexed": true,
                    "internalType": "address",
                    "name": "previousAvatar",
                    "type": "address"
                },
                {
                    "indexed": true,
                    "internalType": "address",
                    "name": "newAvatar",
                    "type": "address"
                }
            ],
            "name": "AvatarSet",
            "type": "event"
        },
        {
            "anonymous": false,
            "inputs": [
                {
                    "indexed": false,
                    "internalType": "address",
                    "name": "guard",
                    "type": "address"
                }
            ],
            "name": "ChangedGuard",
            "type": "event"
        },
        {
            "anonymous": false,
            "inputs": [
                {
                    "indexed": false,
                    "internalType": "address",
                    "name": "connext",
                    "type": "address"
                }
            ],
            "name": "ConnextSet",
            "type": "event"
        },
        {
            "anonymous": false,
            "inputs": [
                {
                    "indexed": false,
                    "internalType": "address",
                    "name": "owner",
                    "type": "address"
                },
                {
                    "indexed": false,
                    "internalType": "address",
                    "name": "avatar",
                    "type": "address"
                },
                {
                    "indexed": false,
                    "internalType": "address",
                    "name": "target",
                    "type": "address"
                },
                {
                    "indexed": false,
                    "internalType": "address",
                    "name": "originSenders",
                    "type": "address"
                },
                {
                    "indexed": false,
                    "internalType": "uint32",
                    "name": "origins",
                    "type": "uint32"
                },
                {
                    "indexed": false,
                    "internalType": "address",
                    "name": "connexts",
                    "type": "address"
                }
            ],
            "name": "ModuleSetUp",
            "type": "event"
        },
        {
            "anonymous": false,
            "inputs": [
                {
                    "indexed": false,
                    "internalType": "address",
                    "name": "originSender",
                    "type": "address"
                }
            ],
            "name": "OriginSendersSet",
            "type": "event"
        },
        {
            "anonymous": false,
            "inputs": [
                {
                    "indexed": false,
                    "internalType": "uint32",
                    "name": "origin",
                    "type": "uint32"
                }
            ],
            "name": "OriginsSet",
            "type": "event"
        },
        {
            "anonymous": false,
            "inputs": [
                {
                    "indexed": true,
                    "internalType": "address",
                    "name": "previousOwner",
                    "type": "address"
                },
                {
                    "indexed": true,
                    "internalType": "address",
                    "name": "newOwner",
                    "type": "address"
                }
            ],
            "name": "OwnershipTransferred",
            "type": "event"
        },
        {
            "anonymous": false,
            "inputs": [
                {
                    "indexed": true,
                    "internalType": "address",
                    "name": "previousTarget",
                    "type": "address"
                },
                {
                    "indexed": true,
                    "internalType": "address",
                    "name": "newTarget",
                    "type": "address"
                }
            ],
            "name": "TargetSet",
            "type": "event"
        },
        {
            "inputs": [
                {
                    "internalType": "address",
                    "name": "connext",
                    "type": "address"
                },
                {
                    "internalType": "address",
                    "name": "multisig",
                    "type": "address"
                },
                {
                    "internalType": "uint32",
                    "name": "origin",
                    "type": "uint32"
                }
            ],
            "name": "RemoveOrigin",
            "outputs": [],
            "stateMutability": "nonpayable",
            "type": "function"
        },
        {
            "inputs": [
                {
                    "internalType": "address",
                    "name": "connext",
                    "type": "address"
                },
                {
                    "internalType": "address",
                    "name": "multisig",
                    "type": "address"
                },
                {
                    "internalType": "uint32",
                    "name": "origin",
                    "type": "uint32"
                }
            ],
            "name": "addOrigin",
            "outputs": [],
            "stateMutability": "nonpayable",
            "type": "function"
        },
        {
            "inputs": [],
            "name": "avatar",
            "outputs": [
                {
                    "internalType": "address",
                    "name": "",
                    "type": "address"
                }
            ],
            "stateMutability": "view",
            "type": "function"
        },
        {
            "inputs": [],
            "name": "getGuard",
            "outputs": [
                {
                    "internalType": "address",
                    "name": "_guard",
                    "type": "address"
                }
            ],
            "stateMutability": "view",
            "type": "function"
        },
        {
            "inputs": [],
            "name": "guard",
            "outputs": [
                {
                    "internalType": "address",
                    "name": "",
                    "type": "address"
                }
            ],
            "stateMutability": "view",
            "type": "function"
        },
        {
            "inputs": [],
            "name": "owner",
            "outputs": [
                {
                    "internalType": "address",
                    "name": "",
                    "type": "address"
                }
            ],
            "stateMutability": "view",
            "type": "function"
        },
        {
            "inputs": [],
            "name": "renounceOwnership",
            "outputs": [],
            "stateMutability": "nonpayable",
            "type": "function"
        },
        {
            "inputs": [
                {
                    "internalType": "address",
                    "name": "_avatar",
                    "type": "address"
                }
            ],
            "name": "setAvatar",
            "outputs": [],
            "stateMutability": "nonpayable",
            "type": "function"
        },
        {
            "inputs": [
                {
                    "internalType": "address",
                    "name": "_connexts",
                    "type": "address"
                }
            ],
            "name": "setConnext",
            "outputs": [],
            "stateMutability": "nonpayable",
            "type": "function"
        },
        {
            "inputs": [
                {
                    "internalType": "address",
                    "name": "_guard",
                    "type": "address"
                }
            ],
            "name": "setGuard",
            "outputs": [],
            "stateMutability": "nonpayable",
            "type": "function"
        },
        {
            "inputs": [
                {
                    "internalType": "uint32",
                    "name": "_origins",
                    "type": "uint32"
                }
            ],
            "name": "setOrigin",
            "outputs": [],
            "stateMutability": "nonpayable",
            "type": "function"
        },
        {
            "inputs": [
                {
                    "internalType": "address",
                    "name": "_originSenders",
                    "type": "address"
                }
            ],
            "name": "setOriginSender",
            "outputs": [],
            "stateMutability": "nonpayable",
            "type": "function"
        },
        {
            "inputs": [
                {
                    "internalType": "address",
                    "name": "_target",
                    "type": "address"
                }
            ],
            "name": "setTarget",
            "outputs": [],
            "stateMutability": "nonpayable",
            "type": "function"
        },
        {
            "inputs": [
                {
                    "internalType": "bytes",
                    "name": "initializeParams",
                    "type": "bytes"
                }
            ],
            "name": "setUp",
            "outputs": [],
            "stateMutability": "nonpayable",
            "type": "function"
        },
        {
            "inputs": [],
            "name": "target",
            "outputs": [
                {
                    "internalType": "address",
                    "name": "",
                    "type": "address"
                }
            ],
            "stateMutability": "view",
            "type": "function"
        },
        {
            "inputs": [
                {
                    "internalType": "address",
                    "name": "newOwner",
                    "type": "address"
                }
            ],
            "name": "transferOwnership",
            "outputs": [],
            "stateMutability": "nonpayable",
            "type": "function"
        },
        {
            "inputs": [
                {
                    "internalType": "bytes32",
                    "name": "",
                    "type": "bytes32"
                },
                {
                    "internalType": "uint256",
                    "name": "_amount",
                    "type": "uint256"
                },
                {
                    "internalType": "address",
                    "name": "_asset",
                    "type": "address"
                },
                {
                    "internalType": "address",
                    "name": "_originSender",
                    "type": "address"
                },
                {
                    "internalType": "uint32",
                    "name": "_origin",
                    "type": "uint32"
                },
                {
                    "internalType": "bytes",
                    "name": "_callData",
                    "type": "bytes"
                }
            ],
            "name": "xReceive",
            "outputs": [
                {
                    "internalType": "bytes",
                    "name": "",
                    "type": "bytes"
                }
            ],
            "stateMutability": "nonpayable",
            "type": "function"
        }
    ],
    "bytecode": "0x60806040523480156200001157600080fd5b5060405162003f5738038062003f57833981810160405281019062000037919062000d55565b6000868686868686604051602001620000569695949392919062000e13565b604051602081830303815290604052905062000078816200008560201b60201c565b5050505050505062001258565b600060019054906101000a900460ff16620000af5760008054906101000a900460ff1615620000c0565b620000bf620002b660201b60201c565b5b62000102576040517f08c379a0000000000000000000000000000000000000000000000000000000008152600401620000f99062000f07565b60405180910390fd5b60008060019054906101000a900460ff16159050801562000153576001600060016101000a81548160ff02191690831515021790555060016000806101000a81548160ff0219169083151502179055505b62000163620002d460201b60201c565b6000806000806000808780602001905181019062000182919062000f6e565b9550955095509550955095506200019f856200033860201b60201c565b620001b0846200048d60201b60201c565b620001c183620005e260201b60201c565b620001d2826200073b60201b60201c565b620001e3816200082860201b60201c565b620001f4866200090f60201b60201c565b7ffbecf7f616d45ca601cf03f4f9ffe701a5075bb7372227842c496db02bd3aecd6200022562000a2460201b60201c565b606660009054906101000a900473ffffffffffffffffffffffffffffffffffffffff16606760009054906101000a900473ffffffffffffffffffffffffffffffffffffffff16868686604051620002829695949392919062000e13565b60405180910390a15050505050508015620002b25760008060016101000a81548160ff0219169083151502179055505b5050565b6000620002ce3062000a4e60201b620011f01760201c565b15905090565b600060019054906101000a900460ff1662000326576040517f08c379a00000000000000000000000000000000000000000000000000000000081526004016200031d9062001080565b60405180910390fd5b6200033662000a7160201b60201c565b565b6200034862000ae560201b60201c565b73ffffffffffffffffffffffffffffffffffffffff166200036e62000a2460201b60201c565b73ffffffffffffffffffffffffffffffffffffffff1614620003c7576040517f08c379a0000000000000000000000000000000000000000000000000000000008152600401620003be90620010f2565b60405180910390fd5b6000606660009054906101000a900473ffffffffffffffffffffffffffffffffffffffff16905081606660006101000a81548173ffffffffffffffffffffffffffffffffffffffff021916908373ffffffffffffffffffffffffffffffffffffffff1602179055508173ffffffffffffffffffffffffffffffffffffffff168173ffffffffffffffffffffffffffffffffffffffff167f52ae88b092de36f87fb43fe794eb1381023b9c1bce563a871154022c63dce34260405160405180910390a35050565b6200049d62000ae560201b60201c565b73ffffffffffffffffffffffffffffffffffffffff16620004c362000a2460201b60201c565b73ffffffffffffffffffffffffffffffffffffffff16146200051c576040517f08c379a00000000000000000000000000000000000000000000000000000000081526004016200051390620010f2565b60405180910390fd5b6000606760009054906101000a900473ffffffffffffffffffffffffffffffffffffffff16905081606760006101000a81548173ffffffffffffffffffffffffffffffffffffffff021916908373ffffffffffffffffffffffffffffffffffffffff1602179055508173ffffffffffffffffffffffffffffffffffffffff168173ffffffffffffffffffffffffffffffffffffffff167f90cc2f570a6eb594b1580ea3e41247d2d73a55281889e86bd4ec2fc29c7e62d660405160405180910390a35050565b620005f262000ae560201b60201c565b73ffffffffffffffffffffffffffffffffffffffff166200061862000a2460201b60201c565b73ffffffffffffffffffffffffffffffffffffffff161462000671576040517f08c379a00000000000000000000000000000000000000000000000000000000081526004016200066890620010f2565b60405180910390fd5b600073ffffffffffffffffffffffffffffffffffffffff168173ffffffffffffffffffffffffffffffffffffffff1603620006e3576040517f08c379a0000000000000000000000000000000000000000000000000000000008152600401620006da9062001164565b60405180910390fd5b620006fe81606a62000aed60201b620012131790919060201c565b507ff2178ed88d692f3263f37f819be59bec05f66b01097b9696cceb181687a842a88160405162000730919062001186565b60405180910390a150565b6200074b62000ae560201b60201c565b73ffffffffffffffffffffffffffffffffffffffff166200077162000a2460201b60201c565b73ffffffffffffffffffffffffffffffffffffffff1614620007ca576040517f08c379a0000000000000000000000000000000000000000000000000000000008152600401620007c190620010f2565b60405180910390fd5b620007eb8163ffffffff16606c62000b2560201b620012431790919060201c565b507f59a429bf8bc4aabf7156864e2bd8309e48e7763f22f57dee628ade472741200c816040516200081d9190620011a3565b60405180910390a150565b6200083862000ae560201b60201c565b73ffffffffffffffffffffffffffffffffffffffff166200085e62000a2460201b60201c565b73ffffffffffffffffffffffffffffffffffffffff1614620008b7576040517f08c379a0000000000000000000000000000000000000000000000000000000008152600401620008ae90620010f2565b60405180910390fd5b620008d281606862000aed60201b620012131790919060201c565b507f08c3335cb99fd4f1aef7ddc8d0fefc3709ad4c2b80690bcd09000387de510f5f8160405162000904919062001186565b60405180910390a150565b6200091f62000ae560201b60201c565b73ffffffffffffffffffffffffffffffffffffffff166200094562000a2460201b60201c565b73ffffffffffffffffffffffffffffffffffffffff16146200099e576040517f08c379a00000000000000000000000000000000000000000000000000000000081526004016200099590620010f2565b60405180910390fd5b600073ffffffffffffffffffffffffffffffffffffffff168173ffffffffffffffffffffffffffffffffffffffff160362000a10576040517f08c379a000000000000000000000000000000000000000000000000000000000815260040162000a079062001236565b60405180910390fd5b62000a218162000b4760201b60201c565b50565b6000603360009054906101000a900473ffffffffffffffffffffffffffffffffffffffff16905090565b6000808273ffffffffffffffffffffffffffffffffffffffff163b119050919050565b600060019054906101000a900460ff1662000ac3576040517f08c379a000000000000000000000000000000000000000000000000000000000815260040162000aba9062001080565b60405180910390fd5b62000ae362000ad762000ae560201b60201c565b62000b4760201b60201c565b565b600033905090565b600062000b1d836000018373ffffffffffffffffffffffffffffffffffffffff1660001b62000c0d60201b60201c565b905092915050565b600062000b3f836000018360001b62000c0d60201b60201c565b905092915050565b6000603360009054906101000a900473ffffffffffffffffffffffffffffffffffffffff16905081603360006101000a81548173ffffffffffffffffffffffffffffffffffffffff021916908373ffffffffffffffffffffffffffffffffffffffff1602179055508173ffffffffffffffffffffffffffffffffffffffff168173ffffffffffffffffffffffffffffffffffffffff167f8be0079c531659141344cd1fd0a4f28419497f9722a3daafe3b4186f6b6457e060405160405180910390a35050565b600062000c21838362000c8760201b60201c565b62000c7c57826000018290806001815401808255809150506001900390600052602060002001600090919091909150558260000180549050836001016000848152602001908152602001600020819055506001905062000c81565b600090505b92915050565b600080836001016000848152602001908152602001600020541415905092915050565b600080fd5b600073ffffffffffffffffffffffffffffffffffffffff82169050919050565b600062000cdc8262000caf565b9050919050565b62000cee8162000ccf565b811462000cfa57600080fd5b50565b60008151905062000d0e8162000ce3565b92915050565b600063ffffffff82169050919050565b62000d2f8162000d14565b811462000d3b57600080fd5b50565b60008151905062000d4f8162000d24565b92915050565b60008060008060008060c0878903121562000d755762000d7462000caa565b5b600062000d8589828a0162000cfd565b965050602062000d9889828a0162000cfd565b955050604062000dab89828a0162000cfd565b945050606062000dbe89828a0162000cfd565b935050608062000dd189828a0162000d3e565b92505060a062000de489828a0162000cfd565b9150509295509295509295565b62000dfc8162000ccf565b82525050565b62000e0d8162000d14565b82525050565b600060c08201905062000e2a600083018962000df1565b62000e39602083018862000df1565b62000e48604083018762000df1565b62000e57606083018662000df1565b62000e66608083018562000e02565b62000e7560a083018462000df1565b979650505050505050565b600082825260208201905092915050565b7f496e697469616c697a61626c653a20636f6e747261637420697320616c72656160008201527f647920696e697469616c697a6564000000000000000000000000000000000000602082015250565b600062000eef602e8362000e80565b915062000efc8262000e91565b604082019050919050565b6000602082019050818103600083015262000f228162000ee0565b9050919050565b600062000f368262000caf565b9050919050565b62000f488162000f29565b811462000f5457600080fd5b50565b60008151905062000f688162000f3d565b92915050565b60008060008060008060c0878903121562000f8e5762000f8d62000caa565b5b600062000f9e89828a0162000f57565b965050602062000fb189828a0162000f57565b955050604062000fc489828a0162000f57565b945050606062000fd789828a0162000f57565b935050608062000fea89828a0162000d3e565b92505060a062000ffd89828a0162000f57565b9150509295509295509295565b7f496e697469616c697a61626c653a20636f6e7472616374206973206e6f74206960008201527f6e697469616c697a696e67000000000000000000000000000000000000000000602082015250565b600062001068602b8362000e80565b915062001075826200100a565b604082019050919050565b600060208201905081810360008301526200109b8162001059565b9050919050565b7f4f776e61626c653a2063616c6c6572206973206e6f7420746865206f776e6572600082015250565b6000620010da60208362000e80565b9150620010e782620010a2565b602082019050919050565b600060208201905081810360008301526200110d81620010cb565b9050919050565b7f53656e6465722073686f756c64206e6f74206265206164647265737328302900600082015250565b60006200114c601f8362000e80565b9150620011598262001114565b602082019050919050565b600060208201905081810360008301526200117f816200113d565b9050919050565b60006020820190506200119d600083018462000df1565b92915050565b6000602082019050620011ba600083018462000e02565b92915050565b7f4f776e61626c653a206e6577206f776e657220697320746865207a65726f206160008201527f6464726573730000000000000000000000000000000000000000000000000000602082015250565b60006200121e60268362000e80565b91506200122b82620011c0565b604082019050919050565b6000602082019050818103600083015262001251816200120f565b9050919050565b612cef80620012686000396000f3fe608060405234801561001057600080fd5b506004361061010b5760003560e01c80637ceab3b1116100a2578063d4b8399211610071578063d4b8399214610256578063ddb0abe014610274578063e19a9dd914610290578063f2fde38b146102ac578063fd614f41146102c85761010b565b80637ceab3b1146101e05780638da5cb5b146101fe578063a4f9edbf1461021c578063c9106389146102385761010b565b8063587b7de1116100de578063587b7de1146101805780635aef7de61461019c578063715018a6146101ba578063776d1a01146101c45761010b565b8063086cfca8146101105780633442a18b1461012c57806346dbe06e146101485780634d6f201314610164575b600080fd5b61012a60048036038101906101259190611cb1565b6102f8565b005b61014660048036038101906101419190611cb1565b61043a565b005b610162600480360381019061015d9190611d1a565b610574565b005b61017e60048036038101906101799190611cb1565b610645565b005b61019a60048036038101906101959190611d47565b610710565b005b6101a46107d6565b6040516101b19190611da9565b60405180910390f35b6101c26107fc565b005b6101de60048036038101906101d99190611cb1565b610884565b005b6101e86109c6565b6040516101f59190611da9565b60405180910390f35b6102066109ec565b6040516102139190611da9565b60405180910390f35b61023660048036038101906102319190611f0a565b610a16565b005b610240610bf4565b60405161024d9190611da9565b60405180910390f35b61025e610c1e565b60405161026b9190611da9565b60405180910390f35b61028e60048036038101906102899190611d47565b610c44565b005b6102aa60048036038101906102a59190611cb1565b610d0a565b005b6102c660048036038101906102c19190611cb1565b610f33565b005b6102e260048036038101906102dd9190611fbf565b61102a565b6040516102ef91906120f0565b60405180910390f35b61030061125d565b73ffffffffffffffffffffffffffffffffffffffff1661031e6109ec565b73ffffffffffffffffffffffffffffffffffffffff1614610374576040517f08c379a000000000000000000000000000000000000000000000000000000000815260040161036b9061216f565b60405180910390fd5b6000606660009054906101000a900473ffffffffffffffffffffffffffffffffffffffff16905081606660006101000a81548173ffffffffffffffffffffffffffffffffffffffff021916908373ffffffffffffffffffffffffffffffffffffffff1602179055508173ffffffffffffffffffffffffffffffffffffffff168173ffffffffffffffffffffffffffffffffffffffff167f52ae88b092de36f87fb43fe794eb1381023b9c1bce563a871154022c63dce34260405160405180910390a35050565b61044261125d565b73ffffffffffffffffffffffffffffffffffffffff166104606109ec565b73ffffffffffffffffffffffffffffffffffffffff16146104b6576040517f08c379a00000000000000000000000000000000000000000000000000000000081526004016104ad9061216f565b60405180910390fd5b600073ffffffffffffffffffffffffffffffffffffffff168173ffffffffffffffffffffffffffffffffffffffff1603610525576040517f08c379a000000000000000000000000000000000000000000000000000000000815260040161051c906121db565b60405180910390fd5b61053981606a61121390919063ffffffff16565b507ff2178ed88d692f3263f37f819be59bec05f66b01097b9696cceb181687a842a8816040516105699190611da9565b60405180910390a150565b61057c61125d565b73ffffffffffffffffffffffffffffffffffffffff1661059a6109ec565b73ffffffffffffffffffffffffffffffffffffffff16146105f0576040517f08c379a00000000000000000000000000000000000000000000000000000000081526004016105e79061216f565b60405180910390fd5b61060a8163ffffffff16606c61124390919063ffffffff16565b507f59a429bf8bc4aabf7156864e2bd8309e48e7763f22f57dee628ade472741200c8160405161063a919061220a565b60405180910390a150565b61064d61125d565b73ffffffffffffffffffffffffffffffffffffffff1661066b6109ec565b73ffffffffffffffffffffffffffffffffffffffff16146106c1576040517f08c379a00000000000000000000000000000000000000000000000000000000081526004016106b89061216f565b60405180910390fd5b6106d581606861121390919063ffffffff16565b507f08c3335cb99fd4f1aef7ddc8d0fefc3709ad4c2b80690bcd09000387de510f5f816040516107059190611da9565b60405180910390a150565b61071861125d565b73ffffffffffffffffffffffffffffffffffffffff166107366109ec565b73ffffffffffffffffffffffffffffffffffffffff161461078c576040517f08c379a00000000000000000000000000000000000000000000000000000000081526004016107839061216f565b60405180910390fd5b6107a083606861126590919063ffffffff16565b506107b582606a61126590919063ffffffff16565b506107d08163ffffffff16606c61129590919063ffffffff16565b50505050565b606660009054906101000a900473ffffffffffffffffffffffffffffffffffffffff1681565b61080461125d565b73ffffffffffffffffffffffffffffffffffffffff166108226109ec565b73ffffffffffffffffffffffffffffffffffffffff1614610878576040517f08c379a000000000000000000000000000000000000000000000000000000000815260040161086f9061216f565b60405180910390fd5b61088260006112af565b565b61088c61125d565b73ffffffffffffffffffffffffffffffffffffffff166108aa6109ec565b73ffffffffffffffffffffffffffffffffffffffff1614610900576040517f08c379a00000000000000000000000000000000000000000000000000000000081526004016108f79061216f565b60405180910390fd5b6000606760009054906101000a900473ffffffffffffffffffffffffffffffffffffffff16905081606760006101000a81548173ffffffffffffffffffffffffffffffffffffffff021916908373ffffffffffffffffffffffffffffffffffffffff1602179055508173ffffffffffffffffffffffffffffffffffffffff168173ffffffffffffffffffffffffffffffffffffffff167f90cc2f570a6eb594b1580ea3e41247d2d73a55281889e86bd4ec2fc29c7e62d660405160405180910390a35050565b606560009054906101000a900473ffffffffffffffffffffffffffffffffffffffff1681565b6000603360009054906101000a900473ffffffffffffffffffffffffffffffffffffffff16905090565b600060019054906101000a900460ff16610a3e5760008054906101000a900460ff1615610a47565b610a46611375565b5b610a86576040517f08c379a0000000000000000000000000000000000000000000000000000000008152600401610a7d90612297565b60405180910390fd5b60008060019054906101000a900460ff161590508015610ad6576001600060016101000a81548160ff02191690831515021790555060016000806101000a81548160ff0219169083151502179055505b610ade611386565b60008060008060008087806020019051810190610afb919061230a565b955095509550955095509550610b10856102f8565b610b1984610884565b610b228361043a565b610b2b82610574565b610b3481610645565b610b3d86610f33565b7ffbecf7f616d45ca601cf03f4f9ffe701a5075bb7372227842c496db02bd3aecd610b666109ec565b606660009054906101000a900473ffffffffffffffffffffffffffffffffffffffff16606760009054906101000a900473ffffffffffffffffffffffffffffffffffffffff16868686604051610bc196959493929190612397565b60405180910390a15050505050508015610bf05760008060016101000a81548160ff0219169083151502179055505b5050565b6000606560009054906101000a900473ffffffffffffffffffffffffffffffffffffffff16905090565b606760009054906101000a900473ffffffffffffffffffffffffffffffffffffffff1681565b610c4c61125d565b73ffffffffffffffffffffffffffffffffffffffff16610c6a6109ec565b73ffffffffffffffffffffffffffffffffffffffff1614610cc0576040517f08c379a0000000000000000000000000000000000000000000000000000000008152600401610cb79061216f565b60405180910390fd5b610cd483606861121390919063ffffffff16565b50610ce982606a61121390919063ffffffff16565b50610d048163ffffffff16606c61124390919063ffffffff16565b50505050565b610d1261125d565b73ffffffffffffffffffffffffffffffffffffffff16610d306109ec565b73ffffffffffffffffffffffffffffffffffffffff1614610d86576040517f08c379a0000000000000000000000000000000000000000000000000000000008152600401610d7d9061216f565b60405180910390fd5b600073ffffffffffffffffffffffffffffffffffffffff168173ffffffffffffffffffffffffffffffffffffffff1614610e96578073ffffffffffffffffffffffffffffffffffffffff166301ffc9a77fe6d7a83a000000000000000000000000000000000000000000000000000000006040518263ffffffff1660e01b8152600401610e139190612433565b602060405180830381865afa158015610e30573d6000803e3d6000fd5b505050506040513d601f19601f82011682018060405250810190610e549190612486565b610e9557806040517fb16ea67e000000000000000000000000000000000000000000000000000000008152600401610e8c9190611da9565b60405180910390fd5b5b80606560006101000a81548173ffffffffffffffffffffffffffffffffffffffff021916908373ffffffffffffffffffffffffffffffffffffffff1602179055507f1151116914515bc0891ff9047a6cb32cf902546f83066499bcf8ba33d2353fa2606560009054906101000a900473ffffffffffffffffffffffffffffffffffffffff16604051610f289190611da9565b60405180910390a150565b610f3b61125d565b73ffffffffffffffffffffffffffffffffffffffff16610f596109ec565b73ffffffffffffffffffffffffffffffffffffffff1614610faf576040517f08c379a0000000000000000000000000000000000000000000000000000000008152600401610fa69061216f565b60405180910390fd5b600073ffffffffffffffffffffffffffffffffffffffff168173ffffffffffffffffffffffffffffffffffffffff160361101e576040517f08c379a000000000000000000000000000000000000000000000000000000000815260040161101590612525565b60405180910390fd5b611027816112af565b50565b606083836110423360686113df90919063ffffffff16565b611078576040517fc891745f00000000000000000000000000000000000000000000000000000000815260040160405180910390fd5b61108c82606a6113df90919063ffffffff16565b6110c2576040517f3529ded600000000000000000000000000000000000000000000000000000000815260040160405180910390fd5b6110dc8163ffffffff16606c61140f90919063ffffffff16565b611112576040517fc54e882e00000000000000000000000000000000000000000000000000000000815260040160405180910390fd5b6000806000808780602001905181019061112c91906125ef565b935093509350935060008b905060008d11156111905761118f606660009054906101000a900473ffffffffffffffffffffffffffffffffffffffff168e8373ffffffffffffffffffffffffffffffffffffffff166114299092919063ffffffff16565b5b60008061119f878787876114af565b91509150816111da576040517fd27b44a900000000000000000000000000000000000000000000000000000000815260040160405180910390fd5b8099505050505050505050509695505050505050565b6000808273ffffffffffffffffffffffffffffffffffffffff163b119050919050565b600061123b836000018373ffffffffffffffffffffffffffffffffffffffff1660001b6117a3565b905092915050565b6000611255836000018360001b6117a3565b905092915050565b600033905090565b600061128d836000018373ffffffffffffffffffffffffffffffffffffffff1660001b611813565b905092915050565b60006112a7836000018360001b611813565b905092915050565b6000603360009054906101000a900473ffffffffffffffffffffffffffffffffffffffff16905081603360006101000a81548173ffffffffffffffffffffffffffffffffffffffff021916908373ffffffffffffffffffffffffffffffffffffffff1602179055508173ffffffffffffffffffffffffffffffffffffffff168173ffffffffffffffffffffffffffffffffffffffff167f8be0079c531659141344cd1fd0a4f28419497f9722a3daafe3b4186f6b6457e060405160405180910390a35050565b6000611380306111f0565b15905090565b600060019054906101000a900460ff166113d5576040517f08c379a00000000000000000000000000000000000000000000000000000000081526004016113cc906126e4565b60405180910390fd5b6113dd611927565b565b6000611407836000018373ffffffffffffffffffffffffffffffffffffffff1660001b611988565b905092915050565b6000611421836000018360001b611988565b905092915050565b6114aa8363a9059cbb60e01b8484604051602401611448929190612713565b604051602081830303815290604052907bffffffffffffffffffffffffffffffffffffffffffffffffffffffff19166020820180517bffffffffffffffffffffffffffffffffffffffffffffffffffffffff83818316178352505050506119ab565b505050565b60006060600073ffffffffffffffffffffffffffffffffffffffff16606560009054906101000a900473ffffffffffffffffffffffffffffffffffffffff1673ffffffffffffffffffffffffffffffffffffffff16146115e357606560009054906101000a900473ffffffffffffffffffffffffffffffffffffffff1673ffffffffffffffffffffffffffffffffffffffff166375f0bb528787878760008060008060006040518060400160405280600281526020017f3078000000000000000000000000000000000000000000000000000000000000815250336040518c63ffffffff1660e01b81526004016115b09b9a99989796959493929190612807565b600060405180830381600087803b1580156115ca57600080fd5b505af11580156115de573d6000803e3d6000fd5b505050505b606760009054906101000a900473ffffffffffffffffffffffffffffffffffffffff1673ffffffffffffffffffffffffffffffffffffffff16635229073f878787876040518563ffffffff1660e01b815260040161164494939291906128c0565b6000604051808303816000875af1158015611663573d6000803e3d6000fd5b505050506040513d6000823e3d601f19601f8201168201806040525081019061168c919061290c565b8092508193505050600073ffffffffffffffffffffffffffffffffffffffff16606560009054906101000a900473ffffffffffffffffffffffffffffffffffffffff1673ffffffffffffffffffffffffffffffffffffffff161461179a57606560009054906101000a900473ffffffffffffffffffffffffffffffffffffffff1673ffffffffffffffffffffffffffffffffffffffff1663932713687f3078000000000000000000000000000000000000000000000000000000000000846040518363ffffffff1660e01b8152600401611767929190612986565b600060405180830381600087803b15801561178157600080fd5b505af1158015611795573d6000803e3d6000fd5b505050505b94509492505050565b60006117af8383611988565b61180857826000018290806001815401808255809150506001900390600052602060002001600090919091909150558260000180549050836001016000848152602001908152602001600020819055506001905061180d565b600090505b92915050565b6000808360010160008481526020019081526020016000205490506000811461191b57600060018261184591906129de565b905060006001866000018054905061185d91906129de565b90508181146118cc57600086600001828154811061187e5761187d612a12565b5b90600052602060002001549050808760000184815481106118a2576118a1612a12565b5b90600052602060002001819055508387600101600083815260200190815260200160002081905550505b856000018054806118e0576118df612a41565b5b600190038181906000526020600020016000905590558560010160008681526020019081526020016000206000905560019350505050611921565b60009150505b92915050565b600060019054906101000a900460ff16611976576040517f08c379a000000000000000000000000000000000000000000000000000000000815260040161196d906126e4565b60405180910390fd5b61198661198161125d565b6112af565b565b600080836001016000848152602001908152602001600020541415905092915050565b6000611a0d826040518060400160405280602081526020017f5361666545524332303a206c6f772d6c6576656c2063616c6c206661696c65648152508573ffffffffffffffffffffffffffffffffffffffff16611a729092919063ffffffff16565b9050600081511115611a6d5780806020019051810190611a2d9190612486565b611a6c576040517f08c379a0000000000000000000000000000000000000000000000000000000008152600401611a6390612ae2565b60405180910390fd5b5b505050565b6060611a818484600085611a8a565b90509392505050565b606082471015611acf576040517f08c379a0000000000000000000000000000000000000000000000000000000008152600401611ac690612b74565b60405180910390fd5b6000808673ffffffffffffffffffffffffffffffffffffffff168587604051611af89190612bd0565b60006040518083038185875af1925050503d8060008114611b35576040519150601f19603f3d011682016040523d82523d6000602084013e611b3a565b606091505b5091509150611b4b87838387611b57565b92505050949350505050565b60608315611bb9576000835103611bb157611b7185611bcc565b611bb0576040517f08c379a0000000000000000000000000000000000000000000000000000000008152600401611ba790612c33565b60405180910390fd5b5b829050611bc4565b611bc38383611bef565b5b949350505050565b6000808273ffffffffffffffffffffffffffffffffffffffff163b119050919050565b600082511115611c025781518083602001fd5b806040517f08c379a0000000000000000000000000000000000000000000000000000000008152600401611c369190612c97565b60405180910390fd5b6000604051905090565b600080fd5b600080fd5b600073ffffffffffffffffffffffffffffffffffffffff82169050919050565b6000611c7e82611c53565b9050919050565b611c8e81611c73565b8114611c9957600080fd5b50565b600081359050611cab81611c85565b92915050565b600060208284031215611cc757611cc6611c49565b5b6000611cd584828501611c9c565b91505092915050565b600063ffffffff82169050919050565b611cf781611cde565b8114611d0257600080fd5b50565b600081359050611d1481611cee565b92915050565b600060208284031215611d3057611d2f611c49565b5b6000611d3e84828501611d05565b91505092915050565b600080600060608486031215611d6057611d5f611c49565b5b6000611d6e86828701611c9c565b9350506020611d7f86828701611c9c565b9250506040611d9086828701611d05565b9150509250925092565b611da381611c73565b82525050565b6000602082019050611dbe6000830184611d9a565b92915050565b600080fd5b600080fd5b6000601f19601f8301169050919050565b7f4e487b7100000000000000000000000000000000000000000000000000000000600052604160045260246000fd5b611e1782611dce565b810181811067ffffffffffffffff82111715611e3657611e35611ddf565b5b80604052505050565b6000611e49611c3f565b9050611e558282611e0e565b919050565b600067ffffffffffffffff821115611e7557611e74611ddf565b5b611e7e82611dce565b9050602081019050919050565b82818337600083830152505050565b6000611ead611ea884611e5a565b611e3f565b905082815260208101848484011115611ec957611ec8611dc9565b5b611ed4848285611e8b565b509392505050565b600082601f830112611ef157611ef0611dc4565b5b8135611f01848260208601611e9a565b91505092915050565b600060208284031215611f2057611f1f611c49565b5b600082013567ffffffffffffffff811115611f3e57611f3d611c4e565b5b611f4a84828501611edc565b91505092915050565b6000819050919050565b611f6681611f53565b8114611f7157600080fd5b50565b600081359050611f8381611f5d565b92915050565b6000819050919050565b611f9c81611f89565b8114611fa757600080fd5b50565b600081359050611fb981611f93565b92915050565b60008060008060008060c08789031215611fdc57611fdb611c49565b5b6000611fea89828a01611f74565b9650506020611ffb89828a01611faa565b955050604061200c89828a01611c9c565b945050606061201d89828a01611c9c565b935050608061202e89828a01611d05565b92505060a087013567ffffffffffffffff81111561204f5761204e611c4e565b5b61205b89828a01611edc565b9150509295509295509295565b600081519050919050565b600082825260208201905092915050565b60005b838110156120a2578082015181840152602081019050612087565b838111156120b1576000848401525b50505050565b60006120c282612068565b6120cc8185612073565b93506120dc818560208601612084565b6120e581611dce565b840191505092915050565b6000602082019050818103600083015261210a81846120b7565b905092915050565b600082825260208201905092915050565b7f4f776e61626c653a2063616c6c6572206973206e6f7420746865206f776e6572600082015250565b6000612159602083612112565b915061216482612123565b602082019050919050565b600060208201905081810360008301526121888161214c565b9050919050565b7f53656e6465722073686f756c64206e6f74206265206164647265737328302900600082015250565b60006121c5601f83612112565b91506121d08261218f565b602082019050919050565b600060208201905081810360008301526121f4816121b8565b9050919050565b61220481611cde565b82525050565b600060208201905061221f60008301846121fb565b92915050565b7f496e697469616c697a61626c653a20636f6e747261637420697320616c72656160008201527f647920696e697469616c697a6564000000000000000000000000000000000000602082015250565b6000612281602e83612112565b915061228c82612225565b604082019050919050565b600060208201905081810360008301526122b081612274565b9050919050565b60006122c282611c53565b9050919050565b6122d2816122b7565b81146122dd57600080fd5b50565b6000815190506122ef816122c9565b92915050565b60008151905061230481611cee565b92915050565b60008060008060008060c0878903121561232757612326611c49565b5b600061233589828a016122e0565b965050602061234689828a016122e0565b955050604061235789828a016122e0565b945050606061236889828a016122e0565b935050608061237989828a016122f5565b92505060a061238a89828a016122e0565b9150509295509295509295565b600060c0820190506123ac6000830189611d9a565b6123b96020830188611d9a565b6123c66040830187611d9a565b6123d36060830186611d9a565b6123e060808301856121fb565b6123ed60a0830184611d9a565b979650505050505050565b60007fffffffff0000000000000000000000000000000000000000000000000000000082169050919050565b61242d816123f8565b82525050565b60006020820190506124486000830184612424565b92915050565b60008115159050919050565b6124638161244e565b811461246e57600080fd5b50565b6000815190506124808161245a565b92915050565b60006020828403121561249c5761249b611c49565b5b60006124aa84828501612471565b91505092915050565b7f4f776e61626c653a206e6577206f776e657220697320746865207a65726f206160008201527f6464726573730000000000000000000000000000000000000000000000000000602082015250565b600061250f602683612112565b915061251a826124b3565b604082019050919050565b6000602082019050818103600083015261253e81612502565b9050919050565b60008151905061255481611f93565b92915050565b600061256d61256884611e5a565b611e3f565b90508281526020810184848401111561258957612588611dc9565b5b612594848285612084565b509392505050565b600082601f8301126125b1576125b0611dc4565b5b81516125c184826020860161255a565b91505092915050565b600281106125d757600080fd5b50565b6000815190506125e9816125ca565b92915050565b6000806000806080858703121561260957612608611c49565b5b6000612617878288016122e0565b945050602061262887828801612545565b935050604085015167ffffffffffffffff81111561264957612648611c4e565b5b6126558782880161259c565b9250506060612666878288016125da565b91505092959194509250565b7f496e697469616c697a61626c653a20636f6e7472616374206973206e6f74206960008201527f6e697469616c697a696e67000000000000000000000000000000000000000000602082015250565b60006126ce602b83612112565b91506126d982612672565b604082019050919050565b600060208201905081810360008301526126fd816126c1565b9050919050565b61270d81611f89565b82525050565b60006040820190506127286000830185611d9a565b6127356020830184612704565b9392505050565b7f4e487b7100000000000000000000000000000000000000000000000000000000600052602160045260246000fd5b6002811061277c5761277b61273c565b5b50565b600081905061278d8261276b565b919050565b600061279d8261277f565b9050919050565b6127ad81612792565b82525050565b6000819050919050565b6000819050919050565b60006127e26127dd6127d8846127b3565b6127bd565b611f89565b9050919050565b6127f2816127c7565b82525050565b612801816122b7565b82525050565b60006101608201905061281d600083018e611d9a565b61282a602083018d612704565b818103604083015261283c818c6120b7565b905061284b606083018b6127a4565b612858608083018a6127e9565b61286560a08301896127e9565b61287260c08301886127e9565b61287f60e0830187611d9a565b61288d6101008301866127f8565b8181036101208301526128a081856120b7565b90506128b0610140830184611d9a565b9c9b505050505050505050505050565b60006080820190506128d56000830187611d9a565b6128e26020830186612704565b81810360408301526128f481856120b7565b905061290360608301846127a4565b95945050505050565b6000806040838503121561292357612922611c49565b5b600061293185828601612471565b925050602083015167ffffffffffffffff81111561295257612951611c4e565b5b61295e8582860161259c565b9150509250929050565b61297181611f53565b82525050565b6129808161244e565b82525050565b600060408201905061299b6000830185612968565b6129a86020830184612977565b9392505050565b7f4e487b7100000000000000000000000000000000000000000000000000000000600052601160045260246000fd5b60006129e982611f89565b91506129f483611f89565b925082821015612a0757612a066129af565b5b828203905092915050565b7f4e487b7100000000000000000000000000000000000000000000000000000000600052603260045260246000fd5b7f4e487b7100000000000000000000000000000000000000000000000000000000600052603160045260246000fd5b7f5361666545524332303a204552433230206f7065726174696f6e20646964206e60008201527f6f74207375636365656400000000000000000000000000000000000000000000602082015250565b6000612acc602a83612112565b9150612ad782612a70565b604082019050919050565b60006020820190508181036000830152612afb81612abf565b9050919050565b7f416464726573733a20696e73756666696369656e742062616c616e636520666f60008201527f722063616c6c0000000000000000000000000000000000000000000000000000602082015250565b6000612b5e602683612112565b9150612b6982612b02565b604082019050919050565b60006020820190508181036000830152612b8d81612b51565b9050919050565b600081905092915050565b6000612baa82612068565b612bb48185612b94565b9350612bc4818560208601612084565b80840191505092915050565b6000612bdc8284612b9f565b915081905092915050565b7f416464726573733a2063616c6c20746f206e6f6e2d636f6e7472616374000000600082015250565b6000612c1d601d83612112565b9150612c2882612be7565b602082019050919050565b60006020820190508181036000830152612c4c81612c10565b9050919050565b600081519050919050565b6000612c6982612c53565b612c738185612112565b9350612c83818560208601612084565b612c8c81611dce565b840191505092915050565b60006020820190508181036000830152612cb18184612c5e565b90509291505056fea2646970667358221220fe4b8cd1ea9b1669102e7d3f5851e472209fbee2a37c6c77ba950b2c70d312e764736f6c634300080f0033",
    "linkReferences": {},
    "deployedLinkReferences": {}
}